:020000040000FA
:0400000007EF00F016
:0A0008003D821CED09F01BEF0BF028
:10100000004C656374757261204144430056616C05
:101010006F720000000E066E04BE13EF08F011EFB1
:1010200008F019EF08F0036C041ED8B0042A010E72
:10103000066E02BE20EF08F01EEF08F026EF08F063
:10104000016C021ED8B0022A010E061A000E086EAC
:10105000000E076E03500410D8B431EF08F033EFE0
:1010600008F05BEF08F0010E056E3BEF08F0D8903A
:1010700003360436052A04AE40EF08F042EF08F0CC
:1010800037EF08F0D890073608360350015C04505B
:101090000258D8A04EEF08F050EF08F055EF08F0D6
:1010A0000350015E0450025A0780D8900432033284
:1010B000052E42EF08F00650D8B461EF08F063EF58
:1010C00008F067EF08F0076C081ED8B0082A07C0C0
:1010D00001F008C002F01200176E20EE38F010EE9A
:1010E00012F0040EDBCFE3FFE806FCE2020E17600D
:1010F0007CEF08F07EEF08F087EF08F00B500F0B45
:101100008009186E185073EC0AF08EEF08F00B503F
:101110000F0BC009186E185073EC0AF0000E1A6E0F
:10112000030E196E120E1924D96E000E1A20DA6EF3
:101130000CC001F00DC002F0000E046E0A0E036E2A
:10114000C4EC08F00150300FDF6E0CC001F00DC090
:1011500002F0000E046E0A0E036E0AEC08F001C0E5
:101160000CF002C00DF01906D8A01A061ABEBDEF89
:1011700008F0BBEF08F092EF08F0120E096E000EB7
:101180000A6EA3EC09F01200000E066E02BECDEF4F
:1011900008F0CBEF08F0D3EF08F0016C021ED8B0D6
:1011A000022A010E066E04BEDAEF08F0D8EF08F04E
:1011B000DEEF08F0036C041ED8B0042A03500410BC
:1011C000D8B4E5EF08F0E7EF08F00BEF09F0010EF7
:1011D000056EEFEF08F0D89003360436052A04AE0A
:1011E000F4EF08F0F6EF08F0EBEF08F00350015CC5
:1011F00004500258D8A0FFEF08F001EF09F005EF06
:1012000009F00350015E0450025AD89004320332B0
:10121000052EF6EF08F00650D8B411EF09F013EFE1
:1012200009F017EF09F0016C021ED8B0022A01C0C4
:1012300001F002C002F012000600E9CF1DF0EACF73
:101240001EF0E1CF1FF0E2CF20F0D9CF21F0DACFAE
:1012500022F0F6CF23F0F7CF24F0F8CF25F0F5CF2A
:1012600026F0F29EF2A437EF09F039EF09F040EFD3
:1012700009F0C282D80ED76EF00ED66E59EF09F083
:101280009EAC45EF09F047EF09F059EF09F0C45063
:101290001C6E1B6AC3501B24276E000E1C20286E78
:1012A000090E0B6E27C00CF028C00DF0020E6CEC7E
:1012B00008F0F2949E9CF28E26C0F5FF25C0F8FF40
:1012C00024C0F7FF23C0F6FF22C0DAFF21C0D9FFF8
:1012D00020C0E2FF1FC0E1FF1EC0EAFF1DC0E9FF02
:1012E0003D92110089EF09F031C0F6FF32C0F7FFDF
:1012F000000EF86E0F0EF76403D00800F55005D00D
:10130000F6CFE9FFF7CFEAFFEF5001EC0AF0314AE0
:10131000322A31C0F6FF32C0F7FF000EF86E0F0E12
:10132000F76403D00800F55005D0F6CFE9FFF7CFFA
:10133000EAFFEF500009D8A4A0EF09F0A2EF09F0EE
:1013400074EF09F01200BAEF09F009C0F6FF0AC005
:10135000F7FF000EF86E0F0EF76403D00800F5508B
:1013600005D0F6CFE9FFF7CFEAFFEF504DEC0AF0DA
:10137000094A0A2A09C0F6FF0AC0F7FF000EF86EF4
:101380000F0EF76403D00800F55005D0F6CFE9FF43
:10139000F7CFEAFFEF500009D8A4D1EF09F0D3EF5F
:1013A00009F0A5EF09F01200720ED36E03EC0BF0FA
:1013B000000E8D6ED80ED76EF00ED66E0F0E966E96
:1013C000E00EF26E800ED56E190EC26E080EC16E62
:1013D000BC0EC06E9D8C010E336E010E346E100E6D
:1013E000356E010EE3EC0AF0030E336E0D0E346E13
:1013F000100E356E020EE3EC0AF0FDEF09F007EF78
:1014000000F0306E30C02FF0F00E2F168C500F0B06
:101410002F108C6E8C848C8600F08C96000E2A6EB9
:10142000010E296E99EC0AF030C02FF02F3AF00E21
:101430002F168C500F0B2F108C6E8C8600F08C9614
:10144000000E2A6E030E296E99EC0AF01200306E1F
:1014500030C02FF0F00E2F168C500F0B2F108C6E0B
:101460008C948C8600F08C96000E2A6E010E296EEC
:1014700099EC0AF030C02FF02F3AF00E2F168C5056
:101480000F0B2F108C6E8C8600F08C96000E2A6E3F
:10149000030E296E99EC0AF01200086E08C007F0DE
:1014A000F00E07168C500F0B07108C6E8C848C86F8
:1014B00000F08C96000E026E010E016EBEEC0AF07A
:1014C00008C007F0073AF00E07168C500F0B0710F4
:1014D0008C6E8C8600F08C96000E026E030E016EF0
:1014E000BEEC0AF01200086E08C007F0F00E0716F6
:1014F0008C500F0B07108C6E8C948C8600F08C96A1
:10150000000E026E010E016EBEEC0AF008C007F07C
:10151000073AF00E07168C500F0B07108C6E8C8656
:1015200000F08C96000E026E030E016EBEEC0AF007
:101530001200000E2C6E000E2B6EB2EF0AF0000EA1
:101540002E6E000E2D6E2D4A2E2A2E5009E1A50E6C
:101550002D5CD8A0AEEF0AF0B0EF0AF0A3EF0AF0CE
:101560002B4A2C2A29502B5C2A502C58D8A0BBEF90
:101570000AF0BDEF0AF09FEF0AF01200000E046EB1
:10158000000E036ED7EF0AF0000E066E000E056E19
:10159000054A062A065009E1A50E055CD8A0D3EF3E
:1015A0000AF0D5EF0AF0C8EF0AF0034A042A015006
:1015B000035C02500458D8A0E0EF0AF0E2EF0AF012
:1015C000C4EF0AF01200366E020E3660EAEF0AF03F
:1015D000ECEF0AF0F5EF0AF033500F0B8009376E8D
:1015E000375027EC0AF0FCEF0AF033500F0BC0091C
:1015F000376E375027EC0AF034C031F035C032F086
:1016000072EC09F01200000E956E000E2A6E0F0E9D
:10161000296E99EC0AF0020E27EC0AF0280E27EC4E
:101620000AF0010E27EC0AF00C0E27EC0AF0060E69
:1016300027EC0AF012003C6A3B6A3A6A396A386A57
:0E1640003D903D92000EF86E0001D4EF09F0CF
:020000040020DA
:08000000FFFFFFFFFFFFFFFF00
:020000040030CA
:0E000000FF081F1FFF8185FF0FC00FE00F409C
:00000001FF
