:020000040000FA
:040000006DEF7FF031
:10FE9C00436F6D6F2065737461733F005CEC7FF092
:10FEAC00CCEC7FF056EF7FF000EF00F0BF0E946EBD
:10FEBC00190EAF6E240EAC6E900EAB6E400EB86E7B
:10FECC00C00EF26E000E9E6E000E9D6E12009C0E09
:10FEDC00F66EFE0EF76E000EF86E00EE57F010EE9A
:10FEEC000CF00900F5CFEEFFE550E150FAE100EE21
:10FEFC0037F0200EEE6AE806FDE1000154EF7FF0CA
:10FF0C0001C003F002C004F08EEF7FF0014A022A18
:10FF1C0001C0D9FF02C0DAFFDF50D8A498EF7FF000
:10FF2C009AEF7FF08CEF7FF00350015C016E045070
:10FF3C000258026E120020EE57F010EE07F00B0E76
:10FF4C00DBCFE3FFE806FCE2000E146E000E136E2E
:10FF5C00BAEF7FF0070E1324D96E000E1420DA6E60
:10FF6C00DF50AD6E134A142A070E016E000E026E9E
:10FF7C0086EC7FF00150135C02501458D8A0C9EFE6
:10FF8C007FF0CBEF7FF0B0EF7FF0120020EE15F09A
:10FF9C001F0EDE6AE806FDE2000E366E000E356EB0
:10FFAC00E2EF7FF0150E3524D96E000E3620DA6E96
:10FFBC00AECFDFFF354A362A9EBAE7EF7FF0E9EF86
:10FFCC007FF0D8EF7FF01550D8B4EFEF7FF0F1EF62
:10FFDC007FF0FFEF7FF0150E3524D96E000E362022
:10FFEC00DA6E000EDF6E150E056E000E066EA1ECBD
:04FFFC007FF0120080
:020000040020DA
:08000000FFFFFFFFFFFFFFFF00
:020000040030CA
:0E000000FF081F1EFF8185FF0FC00FE00F409D
:00000001FF
