:020000040000FA
:0400000007EF00F016
:100008001D82E3ED00F047EF02F0096E0950D8B405
:1000180010EF00F012EF00F034EF00F004BE19EF1B
:1000280000F017EF00F034EF00F001C005F002C057
:1000380006F003C007F004C008F0051E061E071EE0
:10004800081E052A000E06220722082205C00BF00A
:1000580006C00CF007C00DF008C00EF03CEF00F031
:1000680001C00BF002C00CF003C00DF004C00EF08C
:100078000150021003100410D8A445EF00F047EF18
:1000880000F051EF00F0000E016E000E026E000E3F
:10009800036E000E046EE2EF00F0960E0A6E5BEF40
:1000A80000F00A2AD8900E320D320C320B32000EB4
:1000B8000B14056E000E0C14066E000E0D14076E60
:1000C800FE0E0E14086E0550061007100810D8A46E
:1000D80070EF00F072EF00F055EF00F080EF00F0E5
:1000E8000A2A010E0B26000E0C220D220E22D89091
:1000F8000E320D320C320B32000E0B14056E000E50
:100108000C14066E000E0D14076EFF0E0E14086E0A
:100118000550061007100810D8A495EF00F097EFC7
:1001280000F074EF00F09FEF00F00A06D8900B364D
:100138000C360D360E360DBEA4EF00F0A6EF00F01B
:10014800AEEF00F0020E0A60ACEF00F0AEEF00F088
:1001580099EF00F00AB0B3EF00F0B5EF00F0B6EF9A
:1001680000F00D9ED8900A320AC005F0066A076AA8
:10017800086A05C008F0076A066A056A05500B1286
:1001880006500C1207500D1208500E120950D8B420
:10019800D0EF00F0D2EF00F0DAEF00F004BED9EFB4
:1001A80000F0D7EF00F0DAEF00F00E8E0BC001F090
:1001B8000CC002F00DC003F00EC004F012000600DF
:1001C800F29EF2A4EAEF00F0ECEF00F0F3EF00F09B
:1001D800C282D80ED76EF00ED66EA5EF01F09EAC97
:1001E800F8EF00F0FAEF00F0A5EF01F0C4CF1BF034
:1001F8001C6A1BC001F01CC002F0000E02BEFF0EFC
:10020800036E046E010E09EC00F001C00FF002C08D
:1002180010F003C011F004C012F0000E136EA00E0F
:10022800146E780E156E430E166EAAEC01F0D8A067
:1002380020EF01F022EF01F025EF01F08C68A5EF27
:1002480001F01CBE31EF01F01C5009E1E00E1B5C0F
:10025800D8A031EF01F033EF01F037EF01F07F0E56
:100268008C6EA5EF01F01CBE43EF01F01C5009E1B4
:10027800C00E1B5CD8A043EF01F045EF01F049EF39
:1002880001F03F0E8C6EA5EF01F01CBE55EF01F09A
:100298001C5009E1A00E1B5CD8A055EF01F057EFE8
:1002A80001F05BEF01F01F0E8C6EA5EF01F01CBE94
:1002B80067EF01F01C5009E1800E1B5CD8A067EFC6
:1002C80001F069EF01F06DEF01F00F0E8C6EA5EFF4
:1002D80001F01CBE79EF01F01C5009E1600E1B5CB7
:1002E800D8A079EF01F07BEF01F07FEF01F0070E66
:1002F8008C6EA5EF01F01CBE8BEF01F01C5009E1DC
:10030800400E1B5CD8A08BEF01F08DEF01F091EF50
:1003180001F0030E8C6EA5EF01F01CBE9DEF01F0FD
:100328001C5009E1200E1B5CD8A09DEF01F09FEF47
:1003380001F0A3EF01F0010E8C6EA5EF01F0000EA5
:100348008C6EF2949E9CF28E1D921100000E0F147A
:10035800176E000E1014186E800E1114196E7F0E91
:1003680012141A6E1750181019101A10D8A4BFEFCB
:1003780001F0C1EF01F0C9EF01F0000E0F6E000EA1
:10038800106E000E116E000E126E000E1314176E12
:10039800000E1414186E800E1514196E7F0E1614A4
:1003A8001A6E1750181019101A10D8A4DEEF01F0A1
:1003B800E0EF01F0E8EF01F0000E136E000E146E8E
:1003C800000E156E000E166E12AEEDEF01F0EFEF97
:1003D80001F0F8EF01F00F6C101ED8B0102A111EB2
:1003E800D8B0112A800E125616AEFDEF01F0FFEFBD
:1003F80001F008EF02F0136C141ED8B0142A151E71
:10040800D8B0152A800E1656000E0F1A000E101AB4
:10041800000E111A800E121A000E131A000E141A6A
:10042800000E151A800E161A13500F5C145010582F
:100438001550115816501258D8B025EF02F027EF72
:1004480002F02AEF02F0D8902BEF02F0D8801200C9
:10045800000E8C6E000E8D6ED80ED76EF00ED66E16
:10046800000E956E0F0E966EE00EF26E800ED56E33
:100478001D0EC26E000EC16E3C0EC06E9D8C43EF09
:1004880002F007EF00F01D901D9200012CEF02F022
:020000040020DA
:08000000FFFFFFFFFFFFFFFF00
:020000040030CA
:0E000000FF081F1FFF8185FF0FC00FE00F409C
:00000001FF
