:020000040000FA
:04000000A1EF7FF0FD
:10FF42000001E1EF7FF0BF0E946E060EAF6E200E41
:10FF5200AC6E900EAB6E000EB86E9E9A12009EAA08
:10FF6200B5EF7FF0B7EF7FF0B0EF7FF0ABA2BCEF61
:10FF72007FF0BEEF7FF0C1EF7FF0AB9800F0AB886F
:10FF8200AE501200026E9EA8C9EF7FF0CBEF7FF059
:10FF9200C4EF7FF00D0E0218D8A4D2EF7FF0D4EF99
:10FFA2007FF0D6EF7FF00A0EAD6E02C0ADFF070EF6
:10FFB200016E7D0EE82EFED7012EFCD700F0120056
:10FFC200FB0E956E8C84800E016E250E026E000E65
:10FFD200036E000E046EA4EC7FF0410E056EEE0E71
:10FFE200E82EFED7052EFCD700D0B0EC7FF0066ECF
:0EFFF2000650C3EC7FF0F6EF7FF000EF00F05A
:020000040020DA
:08000000FFFFFFFFFFFFFFFF00
:020000040030CA
:0E000000FF081F1EFF8185FF0FC00FE00F409D
:00000001FF
