:020000040000FA
:04000000C1EF79F0E3
:10F382000001F5EF79F09EAAC9EF79F0CBEF79F0A1
:10F39200C4EF79F0ABA2D0EF79F0D2EF79F0D5EFEC
:10F3A20079F0AB9800F0AB88AE501200026E9EA8C6
:10F3B200DDEF79F0DFEF79F0D8EF79F00D0E02187A
:10F3C200D8A4E6EF79F0E8EF79F0EAEF79F00A0EE7
:10F3D200AD6E02C0ADFF410E016EEE0EE82EFED7FD
:10F3E200012EFCD700D01200FB0E956E8C84800E8D
:10F3F200426E250E436E000E446E000E456E17ECF3
:10F402007AF0030E4B6E8A0E4A6E560EE82EFED727
:10F412004A2EFCD74B2EFAD7C4EC79F04C6E4C50E6
:10F42200D7EC79F00DEF7AF000EF00F0BF0E946E9A
:10F4320042C001F043C002F044C003F045C004F0F2
:10F44200010EF9EC7AF001C013F002C014F003C00F
:10F4520015F004C016F0800E0F6E960E106E180E88
:10F46200116E4C0E126ED3EC7BF00FC046F010C042
:10F4720047F011C048F012C049F0000E2C6E000E89
:10F482002D6E800E2E6EBF0E2F6E000E136E000EAE
:10F49200146E800E156E420E166E46C00FF047C0F7
:10F4A20010F048C011F049C012F0D3EC7BF00FC04D
:10F4B20028F010C029F011C02AF012C02BF0A0ECE5
:10F4C2007DF028C038F029C039F02AC03AF02BC0AC
:10F4D2003BF076EC7AF03850AF6E200EAC6E900EA8
:10F4E200AB6E000EB86E9E9A12003A343B34416EF7
:10F4F2004150D8A47FEF7AF081EF7AF08BEF7AF067
:10F50200000E386E000E396E000E3A6E000E3B6E23
:10F51200F8EF7AF038C03CF039C03DF03AC03EF026
:10F522003BC03FF0200E9BEF7AF0D8903F323E3244
:10F532003D323C32E82E96EF7AF03C50406E3A8EE5
:10F54200FF0E3816FF0E3916FF0E3A16000E3B1646
:10F55200960E415E41BEB2EF7AF0B0EF7AF0C8EF9C
:10F562007AF04150800A970FD8B0BAEF7AF0BCEF28
:10F572007AF0BEEF7AF081EF7AF0D8903B323A32ED
:10F5820039323832413EBEEF7AF0E0EF7AF01F0EA8
:10F592004164CEEF7AF0D0EF7AF0D8EF7AF081EFD3
:10F5A2007AF0D890383639363A363B3641064150F1
:10F5B200D8A4DEEF7AF0E0EF7AF0D2EF7AF04050A2
:10F5C200D8B4E6EF7AF0E8EF7AF0F0EF7AF03B1E8B
:10F5D2003A1E391E386C000E39223A223B2238C0BC
:10F5E20038F039C039F03AC03AF03BC03BF0120073
:10F5F200096E0950D8B400EF7BF002EF7BF024EFE4
:10F602007BF004BE09EF7BF007EF7BF024EF7BF089
:10F6120001C005F002C006F003C007F004C008F004
:10F62200051E061E071E081E052A000E06220722B8
:10F63200082205C00BF006C00CF007C00DF008C090
:10F642000EF02CEF7BF001C00BF002C00CF003C0F7
:10F652000DF004C00EF00150021003100410D8A4E3
:10F6620035EF7BF037EF7BF041EF7BF0000E016E60
:10F67200000E026E000E036E000E046ED2EF7BF0DF
:10F68200960E0A6E4BEF7BF00A2AD8900E320D329C
:10F692000C320B32000E0B14056E000E0C14066EAB
:10F6A200000E0D14076EFE0E0E14086E05500610A5
:10F6B20007100810D8A460EF7BF062EF7BF045EFF3
:10F6C2007BF070EF7BF00A2A010E0B26000E0C2253
:10F6D2000D220E22D8900E320D320C320B32000E59
:10F6E2000B14056E000E0C14066E000E0D14076E40
:10F6F200FF0E0E14086E0550061007100810D8A44D
:10F7020085EF7BF087EF7BF064EF7BF08FEF7BF090
:10F712000A06D8900B360C360D360E360DBE94EF17
:10F722007BF096EF7BF09EEF7BF0020E0A609CEF7F
:10F732007BF09EEF7BF089EF7BF00AB0A3EF7BF0CA
:10F74200A5EF7BF0A6EF7BF00D9ED8900A320AC09F
:10F7520005F0066A076A086A05C008F0076A066AC1
:10F76200056A05500B1206500C1207500D12085074
:10F772000E120950D8B4C0EF7BF0C2EF7BF0CAEF93
:10F782007BF004BEC9EF7BF0C7EF7BF0CAEF7BF0E2
:10F792000E8E0BC001F00CC002F00DC003F00EC0C3
:10F7A20004F012001250800B1F6E12501224266EAB
:10F7B20011AEDEEF7BF0E0EF7BF0E1EF7BF0268035
:10F7C2002650D8B4E7EF7BF0E9EF7BF0FEEF7BF059
:10F7D2002628D8A4EFEF7BF0F1EF7BF0F9EF7BF076
:10F7E200000E0F6E000E106E000E116E000E126EE5
:10F7F200118E000E126E06EF7CF0000E0F6E000EE0
:10F80200106E000E116E000E126E1650800B1F1A33
:10F8120016501624276E15AE11EF7CF013EF7CF014
:10F8220014EF7CF027802750D8B41AEF7CF01CEF3D
:10F832007CF031EF7CF02728D8A422EF7CF024EF73
:10F842007CF02CEF7CF0000E136E000E146E000E96
:10F85200156E000E166E158E000E166E39EF7CF0C8
:10F86200000E136E000E146E000E156E000E166E54
:10F872001350141015101610D8A442EF7CF044EF68
:10F882007CF05CEF7CF0000E0F6E000E106E000E2E
:10F89200116E000E126E800E11127F0E12121F5088
:10F8A20012120FC00FF010C010F011C011F012C0F0
:10F8B20012F09FEF7DF02650D8A462EF7CF064EF47
:10F8C2007CF06EEF7CF0000E0F6E000E106E000EDC
:10F8D200116E000E126E9FEF7DF0275026C017F0BA
:10F8E200186A175E000E185A7F0E1724206E000E3B
:10F8F2001820216E0FC01BF010C01CF011C01DF0AB
:10F9020012C01EF0000E0F6E000E106E000E116E71
:10F91200000E126E000E226E000E236E000E246E7A
:10F92200000E256E000E276ECFEF7CF02750D8B464
:10F932009DEF7CF09FEF7CF0B6EF7CF0D8901B3609
:10F942001C361D361E36D8900F361036113612363A
:10F9520025AEAEEF7CF0B0EF7CF0B1EF7CF00F8023
:10F96200D890223623362436253613501B5C145089
:10F972001C5815501D5816501E58D8A0C3EF7CF0C5
:10F98200C5EF7CF0CEEF7CF0258C13501B5E14503B
:10F992001C5A15501D5A16501E5A272A190E276432
:10F9A200D5EF7CF0D7EF7CF097EF7CF01B501C106A
:10F9B2001D101E10D8B4E0EF7CF0E2EF7CF0FAEFFD
:10F9C2007CF02280FAEF7CF0D8900F361036113698
:10F9D200123625AEEFEF7CF0F1EF7CF0F2EF7CF027
:10F9E2000F80D89022362336243625362006D8A01A
:10F9F200210611AEFFEF7CF001EF7DF0E5EF7CF028
:10FA0200000E276E25AE08EF7DF00AEF7DF02EEF97
:10FA12007DF0FF0E2214176EFF0E2314186EFF0ED8
:10FA22002414196E7F0E25141A6E1750181019100F
:10FA32001A10D8B41FEF7DF021EF7DF025EF7DF095
:10FA4200010E276E2EEF7DF00FA02AEF7DF02CEF36
:10FA52007DF02EEF7DF021EF7DF02750D8B434EF0A
:10FA62007DF036EF7DF05AEF7DF0010E0F26000E8D
:10FA720010221122122212A041EF7DF043EF7DF0FD
:10FA82005AEF7DF00FC017F010C018F011C019F036
:10FA920012C01AF01A341A3219321832173217C039
:10FAA2000FF018C010F019C011F01AC012F0204A5D
:10FAB200212A21BE65EF7DF0215008E12028D8A03F
:10FAC20065EF7DF067EF7DF072EF7DF0000E216E45
:10FAD2002068000E0F6E000E106E000E116E000EEA
:10FAE200126E21BE7FEF7DF0215006E12004D8B0D6
:10FAF2007DEF7DF07FEF7DF08DEF7DF0000E216ECA
:10FB0200000E206E000E0F6E000E106E000E116EB3
:10FB1200000E126E000E1F6E20C026F026A094EF7B
:10FB22007DF096EF7DF099EF7DF0118E9AEF7DF0EA
:10FB3200119ED8902630126E50EF7CF012002B509E
:10FB4200800B346E2B502B24366E2AAEABEF7DF039
:10FB5200ADEF7DF0AEEF7DF036803650D8B4B4EF25
:10FB62007DF0B6EF7DF0CBEF7DF03628D8A4BCEF68
:10FB72007DF0BEEF7DF0C6EF7DF0000E286E000E28
:10FB8200296E000E2A6E000E2B6E2A8E000E2B6E30
:10FB9200D3EF7DF0000E286E000E296E000E2A6E45
:10FBA200000E2B6E2F50800B356E34503518D8B4A2
:10FBB200DDEF7DF0DFEF7DF0E0EF7DF0348C2F5054
:10FBC2002F24356E2EAEE8EF7DF0EAEF7DF0EBEFFD
:10FBD2007DF035803550D8B4F1EF7DF0F3EF7DF054
:10FBE20008EF7EF03528D8A4F9EF7DF0FBEF7DF029
:10FBF20003EF7EF0000E2C6E000E2D6E000E2E6EA8
:10FC0200000E2F6E2E8E000E2F6E10EF7EF0000E65
:10FC12002C6E000E2D6E000E2E6E000E2F6E3650C4
:10FC2200355CD8B017EF7EF019EF7EF040EF7EF032
:10FC320034AC1EEF7EF020EF7EF022EF7EF0800EDD
:10FC4200341A36C037F035C036F037C035F028C028
:10FC520037F02CC028F037C02CF029C037F02DC067
:10FC620029F037C02DF02AC037F02EC02AF037C055
:10FC72002EF02BC037F02FC02BF037C02FF0000E24
:10FC8200376E365035C030F0316A305E000E315A70
:10FC920031BE55EF7EF0315009E11A0E305CD8A02A
:10FCA20055EF7EF057EF7EF08EEF7EF02850291050
:10FCB2002A102B10D8A460EF7EF063EF7EF0010EC5
:10FCC20064EF7EF0000E376E000E286E000E296E75
:10FCD200000E2A6E000E2B6E35C036F097EF7EF0C6
:10FCE20037A076EF7EF078EF7EF07EEF7EF0D89050
:10FCF20037300109376E80EF7EF0D890373228A076
:10FD020085EF7EF087EF7EF088EF7EF0378E2B3422
:10FD12002B322A3229322832362A3550365CD8A084
:10FD220095EF7EF097EF7EF071EF7EF034BC9CEFA2
:10FD32007EF09EEF7EF0DEEF7EF03650D8A4A4EF88
:10FD42007EF0A6EF7EF0B0EF7EF0000E286E000E81
:10FD5200296E000E2A6E000E2B6EFFEF7FF02C50E4
:10FD620028262D5029222E502A222F502B222BA01A
:10FD7200BDEF7EF0BFEF7EF06BEF7FF037A0C4EFF8
:10FD82007EF0C6EF7EF0CCEF7EF0D89037300109DE
:10FD9200376ECEEF7EF0D890373228A0D3EF7EF0C8
:10FDA200D5EF7EF0D6EF7EF0378E2B342B322A320F
:10FDB20029322832362A6BEF7FF02C50285C2D50E6
:10FDC20029582E502A582B50800A306E2F50800A04
:10FDD2003058D8B0EFEF7EF0F1EF7EF01CEF7FF0FD
:10FDE20028502C5C306E29502D58316E2A502E58D6
:10FDF200326E2B502F58336EFF0E3024286EFF0EBA
:10FE02003120296EFF0E32202A6EFF0E33202B6E18
:10FE1200800E341A376C3750D8A412EF7FF014EFEB
:10FE22007FF024EF7FF0010E2826000E29222A22DD
:10FE32002B2224EF7FF02C50285E2D50295A2E5071
:10FE42002A5A2F502B5A285029102A102B10D8A486
:10FE52002DEF7FF02FEF7FF064EF7FF03750D8A4C3
:10FE620035EF7FF037EF7FF064EF7FF0000E286E02
:10FE7200000E296E000E2A6E000E2B6EFFEF7FF031
:10FE8200D890283629362A362B3637AE4BEF7FF0FC
:10FE92004DEF7FF04EEF7FF0288037A053EF7FF0D9
:10FEA20055EF7FF059EF7FF0D88037365BEF7FF068
:10FEB200D89037363650D8B461EF7FF063EF7FF0D9
:10FEC20064EF7FF036062AAE69EF7FF06BEF7FF0CA
:10FED20041EF7FF0000E356E37AE72EF7FF074EFB8
:10FEE2007FF08CEF7FF037C030F07F0E3016D8B441
:10FEF2007DEF7FF07FEF7FF083EF7FF0010E356EB5
:10FF02008CEF7FF028A088EF7FF08AEF7FF08CEFF4
:10FF12007FF07FEF7FF03550D8B492EF7FF094EF0F
:10FF22007FF0BFEF7FF0010E2826000E29222A2241
:10FF32002B222BA09FEF7FF0A1EF7FF0BFEF7FF08E
:10FF420028C030F029C031F02AC032F02BC033F083
:10FF52003334333232323132303230C028F031C0B1
:10FF620029F032C02AF033C02BF03628D8B4BCEFC7
:10FF72007FF0BEEF7FF0BFEF7FF0362A3628D8B48D
:10FF8200C5EF7FF0C7EF7FF0CFEF7FF03650D8A4F8
:10FF9200CDEF7FF0CFEF7FF0E1EF7FF0000E286E24
:10FFA200000E296E000E2A6E000E2B6E3650D8A45B
:10FFB200DDEF7FF0DFEF7FF0E1EF7FF0000E346ED8
:10FFC20036A0E6EF7FF0E8EF7FF0EBEF7FF02A8ECE
:10FFD200ECEF7FF02A9ED89036302B6E34AEF4EFE1
:10FFE2007FF0F6EF7FF0F7EF7FF02B8E28C028F03E
:0EFFF20029C029F02AC02AF02BC02BF01200E3
:020000040020DA
:08000000FFFFFFFFFFFFFFFF00
:020000040030CA
:0E000000FF061F1EFF8185FF0FC00FE00F409F
:00000001FF
