:020000040000FA
:0400000007EF00F016
:0A000800458283ED08F011EF0BF0C4
:0F1000000056616C6F723A2000454C4F5600004D
:101010001D6E20EE40F010EE14F0040EDBCFE3FF67
:10102000E806FCE210C019F011C01AF0800E1C6E28
:10103000000E1B6E020E1D6020EF08F022EF08F07C
:101040002BEF08F00F500F0B80091E6E1E5003ECA3
:101050000BF032EF08F00F500F0BC0091E6E1E5040
:1010600003EC0BF0000E206E030E1F6E140E1F24F7
:10107000D96E000E2020DA6E10C001F011C002F00F
:10108000000E046E0A0E036E5EEC09F00150300F84
:10109000DF6E10C007F011C008F0000E0A6E0A0ED5
:1010A000096EFCEC08F007C010F008C011F01F0634
:1010B000D8A0200620BE67EF08F0205006E11F04EC
:1010C000D8B065EF08F067EF08F036EF08F01B5076
:1010D0001914126E1C501A14136E12501310D8B437
:1010E00074EF08F076EF08F07AEF08F02D0E146E2A
:1010F0007CEF08F02B0E146E140E086E000E096EB5
:10110000E7EC09F012000600E9CF24F0EACF25F061
:10111000E1CF26F0E2CF27F0D9CF28F0DACF29F0BF
:10112000F3CF2AF0F4CF2BF0F6CF2CF0F7CF2DF041
:10113000F8CF2EF0F5CF2FF0F29EF2A4A2EF08F038
:10114000A4EF08F0ABEF08F0C282D80ED76EF00E15
:10115000D66EDFEF08F09EACB0EF08F0B2EF08F00B
:10116000DFEF08F0C3CF21F0080E2126C450226E15
:10117000236A212ABFEF08F0D89022362336212E89
:10118000BCEF08F022C001F023C002F0010E046E93
:10119000F40E036EC6EC0AF001C007F002C008F0BE
:1011A000040E0A6E000E096EFCEC08F0020E0F6EC3
:1011B000000E116E7F0E106E010E08EC08F0F29416
:1011C0009E9CF28E2FC0F5FF2EC0F8FF2DC0F7FFBA
:1011D0002CC0F6FF2BC0F4FF2AC0F3FF29C0DAFFB2
:1011E00028C0D9FF27C0E2FF26C0E1FF25C0EAFFE3
:1011F00024C0E9FF45921100000E0C6E0ABE05EFF7
:1012000009F003EF09F00BEF09F0096C0A1ED8B0E2
:101210000A2A010E0C6E08BE12EF09F010EF09F059
:1012200018EF09F0076C081ED8B0082A010E0C1A36
:10123000000E0E6E000E0D6E09500A10D8B423EF8A
:1012400009F025EF09F04DEF09F0010E0B6E2DEFBF
:1012500009F0D89009360A360B2A0AAE32EF09F0A7
:1012600034EF09F029EF09F0D8900D360E36095009
:10127000075C0A500858D8A040EF09F042EF09F087
:1012800047EF09F00950075E0A50085A0D80D890C0
:101290000A3209320B2E34EF09F00C50D8B453EF58
:1012A00009F055EF09F059EF09F00D6C0E1ED8B09A
:1012B0000E2A0DC007F00EC008F01200000E066ED8
:1012C00002BE67EF09F065EF09F06DEF09F0016C00
:1012D000021ED8B0022A010E066E04BE74EF09F099
:1012E00072EF09F078EF09F0036C041ED8B0042AFD
:1012F00003500410D8B47FEF09F081EF09F0A5EF97
:1013000009F0010E056E89EF09F0D8900336043616
:10131000052A04AE8EEF09F090EF09F085EF09F091
:101320000350015C04500258D8A099EF09F09BEFDC
:1013300009F09FEF09F00350015E0450025AD89063
:1013400004320332052E90EF09F00650D8B4ABEF0B
:1013500009F0ADEF09F0B1EF09F0016C021ED8B051
:10136000022A01C001F002C002F01200CDEF09F024
:1013700039C0F6FF3AC0F7FF000EF86E0F0EF764A3
:1013800003D00800F55005D0F6CFE9FFF7CFEAFF0C
:10139000EF50D9EC0AF0394A3A2A39C0F6FF3AC080
:1013A000F7FF000EF86E0F0EF76403D00800F5503B
:1013B00005D0F6CFE9FFF7CFEAFFEF500009D8A438
:1013C000E4EF09F0E6EF09F0B8EF09F01200FEEFE4
:1013D00009F008C0F6FF09C0F7FF000EF86E0F0E07
:1013E000F76403D00800F55005D0F6CFE9FFF7CF3A
:1013F000EAFFEF50F5EC0AF0084A092A08C0F6FFA8
:1014000009C0F7FF000EF86E0F0EF76403D0080056
:10141000F55005D0F6CFE9FFF7CFEAFFEF5000090E
:10142000D8A415EF0AF017EF0AF0E9EF09F012005F
:10143000720ED36EAFEC0AF0000E8D6ED80ED76E22
:10144000F00ED66E0F0E966EE00EF26E800ED56E1A
:10145000190EC26E080EC16EBC0EC06E9D8C030EBE
:101460003B6E090E3C6E100E3D6E010E8FEC0AF0C5
:10147000020E3B6E010E3C6E100E3D6E020E8FECA6
:101480000AF041EF0AF007EF00F0000E356E000E93
:10149000346E5EEF0AF0000E376E000E366E364A7E
:1014A000372A375009E1A50E365CD8A05AEF0AF06A
:1014B0005CEF0AF04FEF0AF0344A352A3250345CC0
:1014C00033503558D8A067EF0AF069EF0AF04BEFB8
:1014D0000AF01200000E046E000E036E83EF0AF095
:1014E000000E066E000E056E054A062A065009E13A
:1014F000A50E055CD8A07FEF0AF081EF0AF074EF2B
:101500000AF0034A042A0150035C02500458D8A090
:101510008CEF0AF08EEF0AF070EF0AF012003E6EC8
:10152000020E3E6096EF0AF098EF0AF0A1EF0AF083
:101530003B500F0B80093F6E3F50E7EC0AF0A8EFDD
:101540000AF03B500F0BC0093F6E3F50E7EC0AF02A
:101550003CC039F03DC03AF0B6EC09F01200000E84
:10156000336E0F0E326E45EC0AF0000E936E000ED5
:10157000956E380EE7EC0AF0010EE7EC0AF00C0E5F
:10158000E7EC0AF0060EE7EC0AF012000150030245
:10159000F3CF05F0F4CF06F001500402F350062615
:1015A00002500302F350062605C001F006C002F007
:1015B0001200386E38C08AFF8C808C8200F08C92CA
:1015C000000E336E010E326E45EC0AF01200386EDA
:1015D00038C08AFF8C908C8200F08C92000E336EA3
:1015E000030E326E45EC0AF01200076E07C08AFF48
:1015F0008C808C8200F08C92000E026E010E016EC7
:101600006AEC0AF01200076E07C08AFF8C908C8289
:1016100000F08C92000E026E030E016E6AEC0AF06E
:101620001200446A436A426A416A406A45904592A0
:0A163000000EF86E000118EF0AF03A
:020000040020DA
:08000000FFFFFFFFFFFFFFFF00
:020000040030CA
:0E000000FF091F1EFF8185FF0FC00FE00F409C
:00000001FF
