:020000040000FA
:04000000B8EF7FF0E6
:10FF70000001BBEF7FF09368F30E956E8C68060E60
:10FF8000026E130E016EAE0EE82EFED7012EFCD7C8
:10FF9000022EFAD78C948C868CB4D1EF7FF0D4EFFC
:10FFA0007FF0010ED5EF7FF0000EFF0A016E0146D3
:10FFB00001468C500118FB0B01188C6E8CB6E3EFD8
:10FFC0007FF0E6EF7FF0010EE7EF7FF0000EFF0A13
:10FFD000016E0146014601468C500118F70B0118CD
:10FFE0008C6E030E026E8A0E016E560EE82EFED740
:10FFF000012EFCD7022EFAD7CCEF7FF000EF00F0F5
:020000040020DA
:08000000FFFFFFFFFFFFFFFF00
:020000040030CA
:0E000000FF081F1FFF8185FF0FC00FE00F409C
:00000001FF
