:020000040000FA
:0400000007EF00F016
:10000800038209ED00F047EF00F00600F3CF01F09E
:10001800F4CF02F0F29E8150D8B415EF00F017EF3C
:1000280000F033EF00F08C50D8A41DEF00F01FEF64
:1000380000F023EF00F0010E8C6E33EF00F0800E1D
:100048008C6029EF00F02BEF00F031EF00F08C50BE
:10005800020DF3CF8CFF33EF00F0000E8C6E81CFD2
:1000680081FFF290F28E02C0F4FF01C0F3FF039209
:100078001100000E8C6E000E956EC80EF26E43EFE6
:1000880000F007EF00F00390039200013DEF00F04D
:020000040020DA
:08000000FFFFFFFFFFFFFFFF00
:020000040030CA
:0E000000FF081F1FFF8185FF0FC00FE00F409C
:00000001FF
